{
  "abi": [
    {
      "type": "constructor",
      "inputs": [],
      "stateMutability": "nonpayable"
    },
    {
      "type": "function",
      "name": "getOwner",
      "inputs": [],
      "outputs": [
        {
          "name": "",
          "type": "address",
          "internalType": "address"
        }
      ],
      "stateMutability": "view"
    },
    {
      "type": "function",
      "name": "issueDocuments",
      "inputs": [
        {
          "name": "merkleRoot",
          "type": "bytes32",
          "internalType": "bytes32"
        }
      ],
      "outputs": [],
      "stateMutability": "nonpayable"
    },
    {
      "type": "function",
      "name": "verifyDocument",
      "inputs": [
        {
          "name": "merkleRoot",
          "type": "bytes32",
          "internalType": "bytes32"
        }
      ],
      "outputs": [
        {
          "name": "",
          "type": "bool",
          "internalType": "bool"
        }
      ],
      "stateMutability": "view"
    },
    {
      "type": "event",
      "name": "merkleRootSaved",
      "inputs": [
        {
          "name": "message",
          "type": "string",
          "indexed": false,
          "internalType": "string"
        },
        {
          "name": "merkleRoot",
          "type": "bytes32",
          "indexed": false,
          "internalType": "bytes32"
        }
      ],
      "anonymous": false
    },
    {
      "type": "error",
      "name": "notOwner",
      "inputs": []
    }
  ],
  "bytecode": {
    "object": "0x60a0604052348015600e575f5ffd5b503373ffffffffffffffffffffffffffffffffffffffff1660808173ffffffffffffffffffffffffffffffffffffffff16815250506080516104736100605f395f818160b0015260d601526104735ff3fe608060405234801561000f575f5ffd5b506004361061003f575f3560e01c8063893d20e8146100435780639a6e900d14610061578063fe35089f1461007d575b5f5ffd5b61004b6100ad565b6040516100589190610292565b60405180910390f35b61007b600480360381019061007691906102e2565b6100d4565b005b610097600480360381019061009291906102e2565b610218565b6040516100a49190610327565b60405180910390f35b5f7f0000000000000000000000000000000000000000000000000000000000000000905090565b7f000000000000000000000000000000000000000000000000000000000000000073ffffffffffffffffffffffffffffffffffffffff163373ffffffffffffffffffffffffffffffffffffffff1614610159576040517f251c9d6300000000000000000000000000000000000000000000000000000000815260040160405180910390fd5b5f5f8281526020019081526020015f205f9054906101000a900460ff16156101b6576040517f08c379a00000000000000000000000000000000000000000000000000000000081526004016101ad9061039a565b60405180910390fd5b60015f5f8381526020019081526020015f205f6101000a81548160ff0219169083151502179055507fa32b5e2590fdc49318fd62e543cd290da87b241d81c28e38ea57f91ad7a413048160405161020d9190610411565b60405180910390a150565b5f600115155f5f8481526020019081526020015f205f9054906101000a900460ff1615150361024a576001905061024e565b5f90505b919050565b5f73ffffffffffffffffffffffffffffffffffffffff82169050919050565b5f61027c82610253565b9050919050565b61028c81610272565b82525050565b5f6020820190506102a55f830184610283565b92915050565b5f5ffd5b5f819050919050565b6102c1816102af565b81146102cb575f5ffd5b50565b5f813590506102dc816102b8565b92915050565b5f602082840312156102f7576102f66102ab565b5b5f610304848285016102ce565b91505092915050565b5f8115159050919050565b6103218161030d565b82525050565b5f60208201905061033a5f830184610318565b92915050565b5f82825260208201905092915050565b7f4d65726b6c6520526f6f7420616c7265616479206578697374000000000000005f82015250565b5f610384601983610340565b915061038f82610350565b602082019050919050565b5f6020820190508181035f8301526103b181610378565b9050919050565b7f6d65726b6c6520526f6f74207361766564206f6e636861696e000000000000005f82015250565b5f6103ec601983610340565b91506103f7826103b8565b602082019050919050565b61040b816102af565b82525050565b5f6040820190508181035f830152610428816103e0565b90506104376020830184610402565b9291505056fea26469706673582212204e4c2d8a022a65dd5d00884a8dffcac5d1e5cfeaa2873949ea6c0b1a1fc991da64736f6c634300081c0033",
    "linkReferences": {}
  },
  "methodIdentifiers": {
    "getOwner()": "893d20e8",
    "issueDocuments(bytes32)": "9a6e900d",
    "verifyDocument(bytes32)": "fe35089f"
  },
  "id": 18
}